:030000000216BD28
:0C16BD00787FE4F6D8FD75812102170447
:0C000300000000000000000000000000F1
:0B1CF400EF1FAC0670011E4C70F622C2
:10002A00AB07AA06EB1BAE0270011A4E60097FAA43
:08003A007E05121CF480ED228A
:10133800907120E04480F07F057E00121CF4E4FFE9
:10134800FE12002A75A75575AC589071327450F08A
:101358009071307403F0907136742FF07F18EF2479
:1013680066FDE434718D82F583E4F00FEFB433EE5B
:10137800904011E4935407FF90711CE054F84FF02B
:10138800904017E493547FFF90711DE054804FF014
:10139800904010E493FF5401C43333335480FE90DB
:1013A8007123E0547F4EF0EFC313543F4440FFA332
:1013B800E054804FF0904012E493FF540FFE907178
:1013C80046E054F04EF0EFC4540FFF90714FE054D4
:1013D800F04FF0904013E493543FFF907140E05475
:1013E800C04FF0904014E493907126F0904015E4BB
:0E13F80093907128F0904016E49390712AF0C3
:0114060022C3
:081D1C007417F0A37470F022AB
:1012610075D9DD12133875D95590715EE054FEF0D1
:1012710075D9BB121B5D121C63121C30121578123A
:101281001A50121BF0121BCF121AC3121C757F01C8
:101291007E0012002A906339121D1C90630B121DEF
:1012A1001C906307121D1C906309121D1C90630D95
:1012B100121D1C90630F121D1C90630DE0FEA3E034
:1012C100FF121D0A90630FE0FEA3E0FF121D1390B1
:1012D100630DE0FFA3E0906303CFF0A3EFF0906311
:1012E1000FE0FFA3E0906305CFF0A3EFF0C2081277
:1012F1000F75121407121A12121B2BC29430040C10
:101301007B017A627982120B181206579062FFE014
:10131100FEA3E0FF1218F9906303EEF0A3EFF09043
:101321006301E0FEA3E0FF1218F9906305EEF0A35C
:07133100EFF0121B8A80B8E7
:100CAB004263071770426309177042630B17704258
:100CBB0062FF177042630317704263011770426340
:030CCB000517709A
:0B1CFF00AC06ECF218EFF27817E222BE
:101578007812E24401F278567407F278277417F269
:1015880018746FF27833E4F218F27819E24401F231
:101598007811E24401F27817E24401F27812E24449
:1015A80001F27814E24401F27818E24401F278D3A7
:1015B800E254CFF2E24410F2E254FCF2E24401F2C7
:1015C80090718AE4F090718C740AF07812E2440207
:1015D800F278577407F278297417F218746FF27852
:1015E80037E4F218F27819E24402F27811E2440280
:1015F800F27817E24402F27812E24402F27814E236
:101608004402F27818E24402F278D3E254F3F2E2A8
:0A1618004404F290718B7409F02273
:091D0A007833121CFF4401F2229F
:091D13007837121CFF4402F22291
:0C1CD0007818E230E0037F01227F002240
:0C1CDC007818E230E1037F01227F002233
:0D1CB6007818E24401F290718C740AF0225B
:0E000F007818E254FEF290718CE4F0D2962242
:0D1CC3007818E24402F290718B7409F0224F
:0E1CA8007818E254FDF290718BE4F0D2952290
:1018F900906339E0FCA3E0FD120343E47B707A179F
:10190900F9F81201A0D3906308E09F906307E09E65
:101919005005E0FEA3E0FFD390630AE09F906309BE
:10192900E09E5005E0FEA3E0FFD390630CE09F909A
:0B193900630BE09E5005E0FEA3E0FF02
:011944002280
:100CCE004162F800C1014162FA004162F9004162DD
:100CDE00D500602062D6FFFF00000000000000007B
:100CEE0000000000000000000000000000000000F6
:100CFE000000000000004162C7004162C800C10050
:100D0E004162C9004162CA004462CB000000004249
:090D1E0062CF00004262D1FFFF28
:1019D300907123E054F8F0E0441EF09071227407F4
:1019E300F0227FEA7E0B906320FDFC120275C30296
:1019F3000232E0FF906329E09F906328E09E2290EB
:0F1A030062CAE0C3941422906328E0FFA3E0229C
:101B5D0078F2E24403F278E3E244C0F278F0E25422
:101B6D00FDF208E254FDF208E2440CF278D0E254A2
:0D1B7D00F7F208E254F7F208E244C0F22249
:101C630043AA04D2AF786AE24479F27F017E00028C
:021C7300002A45
:1019450043AA04D2AFEF24FE601C14602114602664
:101955002403702E907123E054D8F0E0441D121931
:10196500DD759917801C1219D375991980141219F0
:10197500D3759918800C907123E054D81219D97534
:09198500990B7869E24448F22252
:101C4B009062D3E0FEA3E0FF7C007D0C120343E423
:081C5B007B0AFAF9F80201A06E
:1014070090632012028D000000009062F8E06402F1
:0514170070030214C582
:10141C009062C7E004F0E0C3946450030214C5E486
:01142C00F0CF
:0F142D00121C4B9063201202819062F8E070282D
:10143C001219E550089062C8E004F08005E490624F
:10144C00C8F09062C8E0C3940AE44007F09062F8D8
:08145C0004F0229062F8F02276
:081464009062F8E06401705988
:10146C0020000FD20090633112028D000000001298
:0F147C001CE8E47F307E759063311219EC403A22
:10148B00E41219E550089062C9E004F08005E4907D
:10149B0062C9F09062C9E0C3940A4018E4F090620C
:1014AB00F87402F0121C9890633112028D00000048
:0A14BB0000C200229062F87401F0F4
:0114C5002204
:101B2B009062F8E07008300728C20702038E9062BB
:101B3B00F8E0B4010B906307740BF0A374B8F022B8
:101B4B009062F8E0B4020A9063077405F0A374DCAA
:021B5B00F02276
:101A12009062FDE0FEA3E0FF9062FAE0701AD3EF5D
:101A22009420EE940E5004D2018002C20190630B06
:101A32007417F0A37470F022C3EF94C8EE940E40B2
:0D1A420002C20190630B7405F0A374DCF088
:011A4F002274
:03004200020E3D6E
:100E3D00C0E0C0F0C083C082C0D075D000C000C07B
:100E4D0001C002C003C004C005C006C007786BE234
:060E5D0020E103020F5A20
:100E6300AF93EF75F010A4FFE594C4540FFDEF4D5D
:100E7300FF906328E5F0F0A3EFF0E24402F2906202
:090E8300F9E064026003020F2A89
:100E8C00121A02505EE004F0E0C39402404A9062F1
:100E9C00CFE0FEA3D31219F5400CE0FFA3E0906263
:100EAC00CFCFF0A3EFF09062D1E0FEA3C31219F5FF
:100EBC00500CE0FFA3E09062D1CFF0A3EFF0906272
:100ECC00CB120275906328E0FEA3E0FFE4FCFD1258
:100EDC0001089062CB120281121A0250067869E264
:100EEC004401F2121A024066A3120269780412023B
:100EFC00439062F6EEF0A3EFF09062F97403F09079
:100F0C0062CAE4F09062CFF0A3F09062D174FFF06B
:0C0F1C00A3F09062CB12028D00000000D8
:100F280080309062F9E0B40508121A0A9062FB80DA
:100F38001C9062F9E0B40708121A0A9062D3800D77
:100F48009062F9E0B4090B121A0A9062FDCFF0A37F
:020F5800EFF0B8
:100F5A00D007D006D005D004D003D002D001D000EB
:0B0F6A00D0D0D082D083D0F0D0E03295
:100D270041633000C10942632A000042632C00007E
:050D370042632E0000E4
:071D2C00E475F0010200F272
:101C300043A820D2AF75D10178957401F21874765B
:0B1C4000F2789174A0F21874FDF222FB
:03001E000214C603
:1014C600C0E0C0F0C083C082C0D075D000C0007834
:1014D60091E220E70302156BE24480F2906283E01A
:0814E600C394FF5003E004F081
:1014EE00300425906269E0601F90632A121D2CC3A0
:1014FE0090632BE0946090632AE094EA4011E4F04C
:0F150E00A3F0906269F0800790632AE4F0A3F0E5
:10151D0030012790632E121D2C90632CE4F0A3F064
:10152D00C390632FE0943290632EE09400402FE43B
:10153D00F0A3F09062FA04F0802490632C121D2C1D
:10154D0090632EE4F0A3F0C390632DE0944090637C
:0E155D002CE0941F4008E4F0A3F09062FAF036
:0D156B00D000D0D0D082D083D0F0D0E032BC
:070D3C0044633100000000D8
:081D2400789CE2541FF2E22258
:101A5000E5B154CF42B1789CE254E3F2E24414F28F
:101A6000E254FCF2E24401F208E24480F2E2442053
:101A7000F278A1743BF2187460F2789EE4F208F2F6
:0C1A8000121D2444A0F253A8BFD2AF22D4
:0C1CE800121D2444C0F243A840D2AF22D9
:101C9800121D2444A0F2789EE4F208F253A8BF2251
:030021000218AA18
:1018AA00C0E0C0F0C083C082C0D075D000C000C004
:1018BA0004C005C006C007789DE230E71DE24480F7
:1018CA00F2906331120269EF2401FFE43EFEE43D27
:1018DA00FDE43CFC906331120281D007D006D005AA
:0F18EA00D004D000D0D0D082D083D0F0D0E03264
:090D4300C102C10342631E00005D
:10184B00906312120269EF4401FFEC9063120202E3
:10185B0081906311E4F09063162290630DE0FEA378
:10186B00E0FF2290630FE0FEA3E0FF22E475F0019E
:10187B000200F29063177401F0906316E4F022906B
:10188B006304E09F906303E09E22906306E09F90C9
:0F189B006305E09E22906311E004F0E0641822E0
:101BF00043A901D2AF75D104907105E4F09071044E
:101C00007424F090710174A0F090710074FDF022C2
:030024000208CD02
:1008CD00C0E0C0F0C083C082C0D075D000C000C0F1
:1008DD0001C002C003C004C005C006C0079071016D
:1008ED00E020E703020AFDE04480F090631A12183D
:1008FD007790631C12187790631E121877C390635C
:10090D001DE0940D90631CE094004006E4F0A3F00C
:10091D00D203C390631BE0940D90631AE0940040E2
:07092D0006E4F0A3F0D20282
:1009340020833D906318E004F0E0C3941E5003024A
:100944000A3C906311E064176003020A3C90631947
:10095400E09406400AE09414500512184B800B9062
:100964006319E0C394014002E0FF12187E020A3CBE
:10097400906318E0D394005003020A22E0D3943227
:10098400401290631212028D0000000012185C04E1
:10099400F0020A0F906316E06024906318E0C39499
:1009A40002401BE094075016A3E0C39406400FE0F6
:1009B4009414500A12184B1218A0604F803190639F
:1009C40016E06039906318E0C394074030E0941453
:1009D400502BA3E0C394014024E09406501F90637D
:1009E40012120269EF54FE1218541218A0601CA3CC
:1009F4001202697801120256121856800E90631280
:100A040012028D0000000012185CF0906318E4F0EC
:100A1400A3F0906311E0B4181912187E8014906347
:100A240016E0700E90631212028D0000000012187E
:100A34005CF0906319E004F0906317E0601B90632E
:100A440011E4F0906317F0A3F0A3F0906312120284
:090A5400699062BD120281D20515
:100A5D00C390631FE0941490631EE0940050030252
:100A6D000AFDE4F0A3F0300803020AFD121865D365
:100A7D0012188A400990630DE475F0018010121868
:100A8D0065C312188A500A90630D74FFF5F01200B9
:100A9D00F212186ED3121895400990630FE475F099
:100AAD0001801012186EC3121895500A90630F74BE
:100ABD00FFF5F01200F2121865121D0A12186E12CF
:100ACD001D13D390630EE0940090630DE0940050DD
:100ADD000512000F8003121CB6D3906310E0940032
:100AED0090630FE094005005121CA88003121CC3E4
:100AFD00D007D006D005D004D003D002D001D0004D
:0B0B0D00D0D0D082D083D0F0D0E032F6
:070D4C004263391770C10A70
:101C1000E0FEA3E0FF1203437B0AE4FAF9F81201A5
:101C2000A0E422906321E094DD906320E0940422FC
:100F75009062FBE0FFA3E0906320CFF0A3EFF03099
:100F85000A03021076D3906321E094EA906320E08F
:100F95009401500AE4906339F0A3F0021069D3126A
:100FA5001C235029E0FEA3E0FFEF2416FFEE34FEDC
:100FB500FEE434FFFDE434FFFCE47BE07A2EF9F82F
:100FC500120115121C187BDD7A04021050D39063B0
:100FD50021E094EE906320E09408500E7C5D7DC086
:100FE500121C107BEE7A08021050D3906321E09416
:100FF50012906320E0940B5017E0FEA3E0FF7C17EE
:101005007D701203437B02121C1A7B127A0B803B04
:10101500D3906321E094BC906320E0940C500D7C48
:101025008C7DA0121C107BBC7A0C801FD390632191
:10103500E09491906320E0940F501FE0FEA3E0FF41
:101045007CBB7D80121C157B917A0FF9F81201A0EB
:10105500906339EEF0A3EFF0800A9063397417F0CE
:10106500A37470F0906339E07002A3E0700BD20AAC
:0910750022C3121C234002C20A2E
:01107E00224F
:100D53004162690044627EFFFFFFFF4662C10000FB
:100D630000000000C104C1054462BD00000000543E
:100D7300626A0821222324042526272802292A2BF4
:100D83002C012D2E2F3060286295140102030418C4
:100D93000506070810090A0B0C150D0E0F10051197
:100DA300121314081516171806191A1B1C091D1EF1
:100DB3001F205362823200000000000F1200000067
:0C0DC300040001FF1622FF0041626800DE
:10117C00740175F02C9062FF1200F2D3906300E0C2
:10118C0094709062FFE0941722740175F02C9063B8
:10119C00011200F2D3906302E09470906301E0942A
:1011AC00172274FE75F0D41200F2C3906300E09421
:1011BC002C9062FFE094012274FF75F06A1200F229
:1011CC00C3906300E094969062FFE094002274FE5A
:1011DC0075F0D41200F2C3906302E0942C9063017A
:1011EC00E094012274FF75F06A1200F2C39063025E
:1011FC00E09496906301E09400221202439062C145
:10120C00120275C30202329062BD0202697417F0B9
:10121C00A37470F0229062C6E064C522EE75F005EE
:10122C00A4246AF582E4346222EE75F005A42495B8
:10123C00F582E43462227B017A6279C17406F0E4AF
:10124C00FF2212024390627E0202819062C112025E
:05125C006990627E2292
:101622002005030216BAC205121213EC4D4E4F707A
:04163200030216B7E2
:10163600121213EF906320F0906269E0602B9063C2
:1016460020E0540FFBBB010F121213780412124E46
:10165600906320EBF0804A906320E064147042129D
:101666001213780812124E8038121221702D9062D1
:10167600C5E0B40113121213780412120670099011
:101686006320E0540FF080199062C5E0B4020A129C
:10169600121378081212066008800090632074FF07
:1016A600F09062BD12028D00000000906320E0FF02
:0116B6002211
:0616B7007FFF227FFF22ED
:02198E00A907A7
:10199000E4FFFEEB64017014121228F583E0B50138
:1019A0000512122880180EEEB404ED22EB640270CA
:1019B00021FE121235F583E0B50112121235F583BE
:1019C000E5822DF582E43583F583E0FF220EEEB447
:0219D00008E02D
:0119D20022F2
:08174900906321EFF0A3EDF025
:10175100E4A3F0A3F0906269E0603512125712120F
:101761000C701812122170139062C5E0B40102804E
:10177100339062C5E064027050803C906321E0FFC9
:10178100B414028037906321E0FF6401703B80193B
:1017910012125712120C7031121221702C9062C564
:1017A100E0B4010C906321E0FFA3E0FD7B01801117
:1017B1009062C5E0B40212906321E0FFA3E0FD7BDB
:0E17C1000212198E906323EFF0906323E0FF75
:0117CF0022F7
:10065700E4906320F0906293E0F470030208CCE02A
:10066700FFA3E0FD121749906320EFF090629374A7
:05067700FFF0E4A3F018
:10067C00906269E06401705A906320E0FF906268B8
:10068C00E06F7044EF64036005EF642F705E90625E
:10069C00C674C5F090627E1202699062C11202812A
:1006AC00906320E09062C5B403057402F08003747B
:1006BC0001F0E4FF121C87906325121242121A8C6F
:1006CC009062697402F08024906320E0906268F07C
:1006DC00801A906269E0B40213906320E0FF640416
:0C06EC006004EFB43006E4906269F02274
:1006F80012122160030208CC906269E0600F9062D8
:100708007E1202691212097004906269F0906320E7
:10071800E0120317076801076804077705077708D9
:10072800077A0907850B07940D079F0F07AE110776
:10073800AE1407B41507B41807BA1907C91B07DFA1
:100748001D07F71F080F21082223084325084328FF
:10075800085829087F2B08A62D08A630000008CCC9
:10076800121CD0EF7006121CDCEF60030208B20204
:1007780008C012117C50030208CC0208C9E475F0C5
:100788009612118150030208CC0208C91211955023
:10079800030208CC0208C9E475F09612119A5003B6
:1007A8000208CC0208C99062FF0208509063010257
:1007B80008501211B640191211AE40030208CC803D
:1007C800231211CC400A1211C440030208CC801431
:1007D800E49062FF0208BC1211E2400C1211DA40E8
:1007E800030208CCE40208BCE49063010208BC12CE
:1007F80011F8400C1211F040030208CCE40208BCC6
:10080800E49063010208BC12117C40031212191211
:10081800119550030208CC0208C99062FFE475F0F4
:10082800961211844003121219906301E475F09630
:1008380012119D50030208CC0208C99062FF740B84
:10084800F0A374B8F0906301740BF0A374B8F022AD
:100858001211B640081211AE500AE48004E4906206
:10086800FFF0A3F01211E240081211DA5056E480AA
:1008780043E4906301803D1211CC40081211C4502A
:100888000AE48004E49062FFF0A3F01211F8400833
:100898001211F0502FE4801CE49063018016121CA2
:1008A800D0EF7006121CDCEF600EE49062FFF0A33C
:1008B800F0906301F0A3F0229062FF121219906386
:0408C80001121219EE
:0108CC002209
:101AC30078C0E24408F278C2E2543FF278D0E244AC
:101AD30002F278D2E254F3F2209104D2048002C2DB
:101AE3000430040F906324121242121AF7906269B1
:041AF3007401F02268
:040DCF004163380044
:101BAE00906320F09063350202BE90000612005E34
:101BBE00FE90000802005E9000091200D090000C0A
:011BCE0022F4
:100B1800E4906320F07FFFA374FFF0906335120226
:100B2800DE90000112005EFE120045FDEEC39D50EE
:100B380003020CAA121BB2900001E41200D090002C
:100B48000E1202E712033DEFF46008906338742335
:100B5800F08009906338E06003E014F0121BB29053
:100B6800000312005E6F601590000512005E600DB4
:100B7800900004E41200D0900003020CA690000537
:100B880012005EFE90000412005EC39E500B121B02
:100B9800B2900004740102008B121BB29000021282
:100BA800005E6F6048EFF4701C121BB8C39E400AC9
:100BB8007404121BAE9000028061121BB290000AEE
:100BC8007401020C9D121BB29000087401121BC81C
:100BD80012005E6F906335600C1202BE7401121B26
:100BE800C5EF020C9D1202BE900009803DEFF47023
:100BF80041121BB290000912005ED3940050030208
:100C08000CA090000B12005EFE90000A12005ED34A
:100C18009E40117401121BAE90000C12005E90638E
:100C280021F08054121BB290000A740112008B024A
:100C38000CA0121BB2121BBFC394FF5008900008EF
:100C4800740112008B121BB8B50608906320740259
:100C5800F08020121BB2900007121BBB6E703990F7
:100C680063207403121BB190000612005E90000806
:100C78001200D0906321EFF0121BB2E4121BC5746E
:100C8800FF1200D0906321E09000111200D0906311
:100C980020E09000121200D0121BB2900002EF1256
:020CA80000D07A
:010CAA002227
:101C870075AF3F8FAF75AEB975A402E5A530E1FB1F
:011C9700222A
:101A8C009063221202DE75AF3F8FAF906325E0C3E7
:101A9C0094014022E5A530E0FB906322E475F0014F
:101AAC001202C7120045F5A675AEB975A401906374
:071ABC0025E014F080D522A3
:101AF7009063211202DE906324E06027AE070FEEA9
:101B07002400FDE4343F8D82F583E493FE90632146
:101B1700E475F0011202C7EE1200BE906324E014D0
:041B2700F080D32255
:101C750078D2E254CFF2E24410F2907188E4F0C2D7
:021C85009222A9
:101B8A00C390630EE0945890630DE094025012C320
:101B9A00906310E0945890630FE094025003D2923D
:041BAA0022C292229F
:040DD30041633C013B
:071D33007869E24401F2228D
:101BCF0043A902D2AF75D10890710D7401F09071D5
:101BDF000C745DF090710974A0F090710874FDF0B1
:011BEF0022D3
:0300270002107F45
:10107F00C0E0C0F0C083C082C0D075D000C000C037
:10108F0001C002C003C004C005C006C007907109AB
:0E109F00E020E703021161907109E04480F047
:1010AD0090633BE004F0E0C39408400AA3E06006BF
:1010BD00E4F09062F9F090633BE0C3940A4007E4DA
:0610CD00F0D207A304F0BD
:1010D3009062F9E06004E0B4090E7F0112194590B3
:1010E30062F97401F00211619062F9E0B40108122F
:1010F3001D337402F080679062F9E0B4030D7F0240
:101103001219459062F97404F080539062F9E0B4C7
:101113000408121D337405F080449062F9E0B405AD
:101123000D7F031219459062F97406F080309062C6
:10113300F9E0B40608121D337407F080219062F9B8
:10114300E0B4070D7F041219459062F97408F0802A
:101153000D9062F9E0B40806121D337409F0D0074C
:10116300D006D005D004D003D002D001D000D0D017
:09117300D082D083D0F0D0E0322C
:100DD7004260030000426265000042626310004106
:100DE70062670060406005FFFF0000000000000030
:100DF70000000000000000000000000000000000EC
:100E070000000000000000000000000000000000DB
:100E170000000000000000000000000000000000CB
:100E27000000000000000041600000416001004137
:050E3700600200C1068D
:1017D000EF25E0FFEE33FE74472FF58274603EF58F
:1017E00083227FC37E05E4FDFC906320120275D343
:1017F000020232ECF0A3EDF0906326E475F00102F2
:1018000000F2D390630AE094B8906309E0940B224D
:10181000906326E0FEA3E0FFC322906000E025E095
:101820002405F582E43460F58322E4906326F0A376
:10183000F02233FE74052FF58274603EF58322900A
:0B1840006327E025E0FF906326E02214
:10038E0090632012028D000000009062F6E0FFA341
:10039E00E0906324CFF0A3EFF0906005E0F47003DB
:0503AE00A3E0F4703F24
:1003B30012182B1218109420EE94005015906324F9
:1003C300E0FCA3E0FDEF25E0FFEE1218321217F375
:1003D30080E112182A121810940EEE9401505990CD
:0F03E3006324E0FCA3E0FD1217D01217F380E6AD
:1003F20012181AE0FFA3E0906326CFF0A3EFF0906B
:100402006324E0FEA3E0FF906326EE8FF01200F279
:10041200906326E0C313FEA3E013FF906326EEF081
:10042200A3EFF012181AEEF0A3EFF0906000E004D0
:09043200F0E0C394204002E4F064
:10043B0012182A90632012027512183F121832E01C
:10044B00FEA3E0FFE4FCFD12010890632012028181
:10045B001217F8906326E07004A3E0642070D49028
:10046B006320120269780512024390632012028105
:10047B00906320120269AD07AC06906046E025E060
:10048B00FF906045E033FE74472FF58274603EF5B4
:10049B0083ECF0A3EDF09060451217FBC390604620
:0F04AB00E0940E906045E094014004E4F0A3F06B
:1004BA0012182A906265F0A3F09062637410F0A398
:1004CA00E4F0121810940EEE9401400302055D1236
:1004DA0017D0E0FCA3E0FD906265E0FAA3E0FBD34D
:1004EA00ED9BEC9A400F1217D7E0FFA3E0906265EC
:1004FA00CFF0A3EFF012183F1217D5E0FCA3E0FDEE
:10050A00906263E0FAA3E0FBC3ED9BEC9A500F12F2
:10051A0017D7E0FFA3E0906263CFF0A3EFF09062F9
:10052A0063E0FEA3E0FFC3906266E09FFF9062650E
:10053A00E09EFED3EF9450EE9400400890626774F8
:10054A001EF08009906267E06003E014F01217F869
:03055A000204CCCC
:10055D00E47F8B7E06FDFC906320120275C31202B0
:10056D0032500C3006597F8B7E061217E64050E450
:10057D00906001F0A3F0D206906267E0B41E1BE01C
:10058D0014F0121802400774FFF5F01200F2C312B6
:10059D0018034003020656020611906267E06003DD
:1005AD00020656200203020656C202C390630AE0F9
:1005BD009470906309E094174003020656803C1234
:1005CD0017E24048E47F6D7E061217E74008906001
:1005DD0001E064047036300370C203906001E0C323
:1005ED0094045003E004F0E4906002F0C206121887
:1005FD000240028043C31218035006E475F00180D7
:10060D003C906309740BF0A374B8F0221217E2400A
:10061D0006906002E0603230032FC20390600274D6
:10062D0001F0E4906001F0C206D390630AE09408F3
:10063D00906309E09407400874FF75F0FE0200F224
:09064D009063097407F0A304F0A6
:010656002281
:1016C900021261E493A3F8E493A34003F68001F2C4
:1016D90008DFF48029E493A3F85407240CC8C33322
:1016E900C4540F4420C8834004F456800146F6DFF1
:1016F900E4800B0102040810204080900CABE47ECA
:10170900019360BCA3FF543F30E509541FFEE493E5
:10171900A360010ECF54C025E060A840B8E493A3AC
:10172900FAE493A3F8E493A3C8C582C8CAC583CAD7
:10173900F0A3C8C582C8CAC583CADFE9DEE780BE8F
:010E3C0000B5
:10004500BB010689828A83E0225002E722BBFE02B9
:09005500E32289828A83E49322EC
:10005E00BB010CE58229F582E5833AF583E0225057
:10006E0006E92582F8E622BBFE06E92582F8E222A1
:0D007E00E58229F582E5833AF583E49322BB
:10008B00BB010FF8E58229F582E5833AF583E02879
:10009B00F0225009C58229F8E58226F622BBFE091B
:1000AB00C58229F8E22582F222F8EA2583F583E955
:0300BB0093282265
:1000BE00BB010689828A83F0225002F722BBFE0121
:0200CE00F3221B
:1000D000F8BB010DE58229F582E5833AF583E8F066
:1000E000225006E92582C8F622BBFE05E92582C812
:0200F000F222FA
:1000F200C5F0F8A3E028F0C5F0F8E5821582700299
:060102001583E038F02235
:0D010800EF2BFFEE3AFEED39FDEC38FC2246
:10011500E88FF0A4CC8BF0A42CFCE98EF0A42CFC89
:100125008AF0EDA42CFCEA8EF0A4CDA8F08BF0A407
:100135002DCC3825F0FDE98FF0A42CCD35F0FCEB66
:100145008EF0A4FEA9F0EB8FF0A4CFC5F02ECD392B
:0F015500FEE43CFCEAA42DCE35F0FDE43CFC2298
:1001640075F008758200EF2FFFEE33FECD33CDCC52
:1001740033CCC58233C5829BED9AEC99E5829840D5
:100184000CF582EE9BFEED9AFDEC99FC0FD5F0D6B2
:10019400E4CEFBE4CDFAE4CCF9A88222B800C1B9DC
:1001A4000059BA002DEC8BF084CFCECDFCE5F0CB1A
:1001B400F97818EF2FFFEE33FEED33FDEC33FCEB53
:1001C40033FB10D703994004EB99FB0FD8E5E4F90E
:1001D400FA227818EF2FFFEE33FEED33FDEC33FCFB
:1001E400C933C910D7059BE99A4007EC9BFCE99AEF
:1001F400F90FD8E0E4C9FAE4CCFB2275F010EF2F34
:10020400FFEE33FEED33FDCC33CCC833C810D70733
:100214009BEC9AE899400AED9BFDEC9AFCE899F86E
:0E0224000FD5F0DAE4CDFBE4CCFAE4C8F92201
:10023200EB9FF5F0EA9E42F0E99D42F0E89C45F022
:010242002299
:10024300E8600FECC313FCED13FDEE13FEEF13FF99
:03025300D8F122BD
:10025600E8600FEFC333FFEE33FEED33FDEC33FC06
:03026600D8F122AA
:0C026900E0FCA3E0FDA3E0FEA3E0FF2208
:0C027500E0F8A3E0F9A3E0FAA3E0FB220C
:0C028100ECF0A3EDF0A3EEF0A3EFF022F0
:10028D00A8828583F0D083D0821202A41202A41218
:10029D0002A41202A4E473E493A3C583C5F0C5833D
:1002AD00C8C582C8F0A3C583C5F0C583C8C582C8BB
:0102BD00221E
:0902BE00E0FBA3E0FAA3E0F92241
:1002C700F8E0FBA3A3E0F925F0F0E58215827002C0
:0702D7001583E0FA38F02264
:0902DE00EBF0A3EAF0A3E9F02221
:1002E700BB010DE58229F582E5833AF5830202BE5B
:1002F7005007E92582F8020370BBFE07E92582F85B
:10030700020379E58229F582E5833AF583020382C0
:10031700D083D082F8E4937012740193700DA3A375
:1003270093F8740193F5828883E473740293686089
:06033700EFA3A3A380DF89
:06033D008A838982E4734B
:10034300EC8EF0A4CCC5F0CCCDF8EFA4CEC5F02D47
:10035300FDE43CFCE8A42EC8C5F03DFDE43CFCEF05
:0D036300A4FFE5F028FEE43DFDE43CFC2293
:09037000E6FB08E6FA08E6F922B2
:09037900E2FB08E2FA08E2F922B5
:0C038200E493FB740193FA740293F922D7
:00000001FF
